{
  "_format": "hh-sol-artifact-1",
  "contractName": "Okid",
  "sourceName": "contracts/Okid.sol",
  "abi": [
    {
      "inputs": [],
      "stateMutability": "nonpayable",
      "type": "constructor"
    },
    {
      "anonymous": false,
      "inputs": [
        {
          "indexed": false,
          "internalType": "string",
          "name": "domainName",
          "type": "string"
        },
        {
          "indexed": false,
          "internalType": "address",
          "name": "owner",
          "type": "address"
        },
        {
          "indexed": false,
          "internalType": "uint256",
          "name": "expiration",
          "type": "uint256"
        }
      ],
      "name": "DomainRegistered",
      "type": "event"
    },
    {
      "anonymous": false,
      "inputs": [
        {
          "indexed": false,
          "internalType": "string",
          "name": "domainName",
          "type": "string"
        },
        {
          "indexed": false,
          "internalType": "uint256",
          "name": "expiration",
          "type": "uint256"
        }
      ],
      "name": "DomainRenewed",
      "type": "event"
    },
    {
      "anonymous": false,
      "inputs": [
        {
          "indexed": false,
          "internalType": "string",
          "name": "domainName",
          "type": "string"
        }
      ],
      "name": "DomainRevoked",
      "type": "event"
    },
    {
      "stateMutability": "payable",
      "type": "fallback"
    },
    {
      "inputs": [],
      "name": "DOMAIN_EXPIRATION_TIME",
      "outputs": [
        {
          "internalType": "uint256",
          "name": "",
          "type": "uint256"
        }
      ],
      "stateMutability": "view",
      "type": "function"
    },
    {
      "inputs": [],
      "name": "getContractOwner",
      "outputs": [
        {
          "internalType": "address",
          "name": "",
          "type": "address"
        }
      ],
      "stateMutability": "view",
      "type": "function"
    },
    {
      "inputs": [
        {
          "internalType": "string",
          "name": "domainName",
          "type": "string"
        }
      ],
      "name": "getDomainExpiration",
      "outputs": [
        {
          "internalType": "uint256",
          "name": "",
          "type": "uint256"
        }
      ],
      "stateMutability": "view",
      "type": "function"
    },
    {
      "inputs": [
        {
          "internalType": "string",
          "name": "domainName",
          "type": "string"
        }
      ],
      "name": "getDomainOwner",
      "outputs": [
        {
          "internalType": "address",
          "name": "",
          "type": "address"
        }
      ],
      "stateMutability": "view",
      "type": "function"
    },
    {
      "inputs": [],
      "name": "owner",
      "outputs": [
        {
          "internalType": "address",
          "name": "",
          "type": "address"
        }
      ],
      "stateMutability": "view",
      "type": "function"
    },
    {
      "inputs": [
        {
          "internalType": "string",
          "name": "domainName",
          "type": "string"
        }
      ],
      "name": "registerDomain",
      "outputs": [],
      "stateMutability": "payable",
      "type": "function"
    },
    {
      "inputs": [
        {
          "internalType": "string",
          "name": "domainName",
          "type": "string"
        }
      ],
      "name": "renewDomain",
      "outputs": [],
      "stateMutability": "payable",
      "type": "function"
    },
    {
      "inputs": [
        {
          "internalType": "string",
          "name": "domainName",
          "type": "string"
        }
      ],
      "name": "revokeDomain",
      "outputs": [],
      "stateMutability": "nonpayable",
      "type": "function"
    },
    {
      "stateMutability": "payable",
      "type": "receive"
    }
  ],
  "bytecode": "0x608060405234801561001057600080fd5b50336000806101000a81548173ffffffffffffffffffffffffffffffffffffffff021916908373ffffffffffffffffffffffffffffffffffffffff160217905550610f98806100606000396000f3fe60806040526004361061007e5760003560e01c80638da5cb5b1161004e5780638da5cb5b14610155578063a5cad08a14610180578063de1546601461019c578063f5fb9de3146101c757610085565b806296c0671461008757806325970115146100c4578063442890d514610101578063547045db1461012c57610085565b3661008557005b005b34801561009357600080fd5b506100ae60048036038101906100a99190610aa8565b6101e3565b6040516100bb9190610b0a565b60405180910390f35b3480156100d057600080fd5b506100eb60048036038101906100e69190610aa8565b61020e565b6040516100f89190610b66565b60405180910390f35b34801561010d57600080fd5b50610116610259565b6040516101239190610b66565b60405180910390f35b34801561013857600080fd5b50610153600480360381019061014e9190610aa8565b610282565b005b34801561016157600080fd5b5061016a6104f3565b6040516101779190610b66565b60405180910390f35b61019a60048036038101906101959190610aa8565b610517565b005b3480156101a857600080fd5b506101b1610707565b6040516101be9190610b0a565b60405180910390f35b6101e160048036038101906101dc9190610aa8565b61070f565b005b60006001826040516101f59190610bf2565b9081526020016040518091039020600101549050919050565b60006001826040516102209190610bf2565b908152602001604051809103902060000160009054906101000a900473ffffffffffffffffffffffffffffffffffffffff169050919050565b60008060009054906101000a900473ffffffffffffffffffffffffffffffffffffffff16905090565b600073ffffffffffffffffffffffffffffffffffffffff166001826040516102aa9190610bf2565b908152602001604051809103902060000160009054906101000a900473ffffffffffffffffffffffffffffffffffffffff1673ffffffffffffffffffffffffffffffffffffffff1603610332576040517f08c379a000000000000000000000000000000000000000000000000000000000815260040161032990610c66565b60405180910390fd5b6001816040516103429190610bf2565b908152602001604051809103902060000160009054906101000a900473ffffffffffffffffffffffffffffffffffffffff1673ffffffffffffffffffffffffffffffffffffffff163373ffffffffffffffffffffffffffffffffffffffff16146103e1576040517f08c379a00000000000000000000000000000000000000000000000000000000081526004016103d890610cd2565b60405180910390fd5b6001816040516103f19190610bf2565b908152602001604051809103902060000160009054906101000a900473ffffffffffffffffffffffffffffffffffffffff1673ffffffffffffffffffffffffffffffffffffffff166108fc479081150290604051600060405180830381858888f19350505050158015610468573d6000803e3d6000fd5b506001816040516104799190610bf2565b9081526020016040518091039020600080820160006101000a81549073ffffffffffffffffffffffffffffffffffffffff0219169055600182016000905550507f3107f9dbb1e381f2d3aaaf046373223d56d3dafe7540adadc273d9558ed88c9f816040516104e89190610d2b565b60405180910390a150565b60008054906101000a900473ffffffffffffffffffffffffffffffffffffffff1681565b6301e1338034101561055e576040517f08c379a000000000000000000000000000000000000000000000000000000000815260040161055590610d99565b60405180910390fd5b600073ffffffffffffffffffffffffffffffffffffffff166001826040516105869190610bf2565b908152602001604051809103902060000160009054906101000a900473ffffffffffffffffffffffffffffffffffffffff1673ffffffffffffffffffffffffffffffffffffffff161461060e576040517f08c379a000000000000000000000000000000000000000000000000000000000815260040161060590610e05565b60405180910390fd5b60405180604001604052803373ffffffffffffffffffffffffffffffffffffffff1681526020016301e13380426106459190610e54565b8152506001826040516106589190610bf2565b908152602001604051809103902060008201518160000160006101000a81548173ffffffffffffffffffffffffffffffffffffffff021916908373ffffffffffffffffffffffffffffffffffffffff160217905550602082015181600101559050507f19b32006d377795e50309cbfef6336edf2dac8a41b8aa40093296ca5489b4d6781336301e13380426106ed9190610e54565b6040516106fc93929190610e88565b60405180910390a150565b6301e1338081565b6301e13380341015610756576040517f08c379a000000000000000000000000000000000000000000000000000000000815260040161074d90610d99565b60405180910390fd5b600073ffffffffffffffffffffffffffffffffffffffff1660018260405161077e9190610bf2565b908152602001604051809103902060000160009054906101000a900473ffffffffffffffffffffffffffffffffffffffff1673ffffffffffffffffffffffffffffffffffffffff1603610806576040517f08c379a00000000000000000000000000000000000000000000000000000000081526004016107fd90610c66565b60405180910390fd5b6001816040516108169190610bf2565b908152602001604051809103902060000160009054906101000a900473ffffffffffffffffffffffffffffffffffffffff1673ffffffffffffffffffffffffffffffffffffffff163373ffffffffffffffffffffffffffffffffffffffff16146108b5576040517f08c379a00000000000000000000000000000000000000000000000000000000081526004016108ac90610f12565b60405180910390fd5b6301e133806001826040516108ca9190610bf2565b908152602001604051809103902060010160008282546108ea9190610e54565b925050819055507ff44ec9072df846717b4110f1fc66219abeeba0e9599e259c4309f01079e7a8e9816001836040516109239190610bf2565b908152602001604051809103902060010154604051610943929190610f32565b60405180910390a150565b6000604051905090565b600080fd5b600080fd5b600080fd5b600080fd5b6000601f19601f8301169050919050565b7f4e487b7100000000000000000000000000000000000000000000000000000000600052604160045260246000fd5b6109b58261096c565b810181811067ffffffffffffffff821117156109d4576109d361097d565b5b80604052505050565b60006109e761094e565b90506109f382826109ac565b919050565b600067ffffffffffffffff821115610a1357610a1261097d565b5b610a1c8261096c565b9050602081019050919050565b82818337600083830152505050565b6000610a4b610a46846109f8565b6109dd565b905082815260208101848484011115610a6757610a66610967565b5b610a72848285610a29565b509392505050565b600082601f830112610a8f57610a8e610962565b5b8135610a9f848260208601610a38565b91505092915050565b600060208284031215610abe57610abd610958565b5b600082013567ffffffffffffffff811115610adc57610adb61095d565b5b610ae884828501610a7a565b91505092915050565b6000819050919050565b610b0481610af1565b82525050565b6000602082019050610b1f6000830184610afb565b92915050565b600073ffffffffffffffffffffffffffffffffffffffff82169050919050565b6000610b5082610b25565b9050919050565b610b6081610b45565b82525050565b6000602082019050610b7b6000830184610b57565b92915050565b600081519050919050565b600081905092915050565b60005b83811015610bb5578082015181840152602081019050610b9a565b60008484015250505050565b6000610bcc82610b81565b610bd68185610b8c565b9350610be6818560208601610b97565b80840191505092915050565b6000610bfe8284610bc1565b915081905092915050565b600082825260208201905092915050565b7f444f4d41494e204e4f5420524547495354455245440000000000000000000000600082015250565b6000610c50601583610c09565b9150610c5b82610c1a565b602082019050919050565b60006020820190508181036000830152610c7f81610c43565b9050919050565b7f4f4e4c59204f574e45522043414e205245564f4b4520444f4d41494e00000000600082015250565b6000610cbc601c83610c09565b9150610cc782610c86565b602082019050919050565b60006020820190508181036000830152610ceb81610caf565b9050919050565b6000610cfd82610b81565b610d078185610c09565b9350610d17818560208601610b97565b610d208161096c565b840191505092915050565b60006020820190508181036000830152610d458184610cf2565b905092915050565b7f494e53554646494349454e542046554e44530000000000000000000000000000600082015250565b6000610d83601283610c09565b9150610d8e82610d4d565b602082019050919050565b60006020820190508181036000830152610db281610d76565b9050919050565b7f444f4d41494e20414c5245414459205245474953544552454400000000000000600082015250565b6000610def601983610c09565b9150610dfa82610db9565b602082019050919050565b60006020820190508181036000830152610e1e81610de2565b9050919050565b7f4e487b7100000000000000000000000000000000000000000000000000000000600052601160045260246000fd5b6000610e5f82610af1565b9150610e6a83610af1565b9250828201905080821115610e8257610e81610e25565b5b92915050565b60006060820190508181036000830152610ea28186610cf2565b9050610eb16020830185610b57565b610ebe6040830184610afb565b949350505050565b7f4f4e4c59204f574e45522043414e2052454e455720444f4d41494e0000000000600082015250565b6000610efc601b83610c09565b9150610f0782610ec6565b602082019050919050565b60006020820190508181036000830152610f2b81610eef565b9050919050565b60006040820190508181036000830152610f4c8185610cf2565b9050610f5b6020830184610afb565b939250505056fea2646970667358221220c03aae7f154a4fea29d9df7de581bc175fb78a8eca156dbd4d661f07bce4325c64736f6c63430008110033",
  "linkReferences": {},
  "deployedLinkReferences": {}
}