{
  "_format": "hh-sol-artifact-1",
  "contractName": "Okid",
  "sourceName": "contracts/Okid.sol",
  "abi": [
    {
      "inputs": [],
      "stateMutability": "nonpayable",
      "type": "constructor"
    },
    {
      "anonymous": false,
      "inputs": [
        {
          "indexed": false,
          "internalType": "string",
          "name": "domainName",
          "type": "string"
        },
        {
          "indexed": false,
          "internalType": "address",
          "name": "owner",
          "type": "address"
        },
        {
          "indexed": false,
          "internalType": "uint256",
          "name": "expiration",
          "type": "uint256"
        }
      ],
      "name": "DomainRegistered",
      "type": "event"
    },
    {
      "anonymous": false,
      "inputs": [
        {
          "indexed": false,
          "internalType": "string",
          "name": "domainName",
          "type": "string"
        },
        {
          "indexed": false,
          "internalType": "uint256",
          "name": "expiration",
          "type": "uint256"
        }
      ],
      "name": "DomainRenewed",
      "type": "event"
    },
    {
      "anonymous": false,
      "inputs": [
        {
          "indexed": false,
          "internalType": "string",
          "name": "domainName",
          "type": "string"
        }
      ],
      "name": "DomainRevoked",
      "type": "event"
    },
    {
      "stateMutability": "payable",
      "type": "fallback"
    },
    {
      "inputs": [],
      "name": "DOMAIN_EXPIRATION_TIME",
      "outputs": [
        {
          "internalType": "uint256",
          "name": "",
          "type": "uint256"
        }
      ],
      "stateMutability": "view",
      "type": "function"
    },
    {
      "inputs": [],
      "name": "getContractOwner",
      "outputs": [
        {
          "internalType": "address",
          "name": "",
          "type": "address"
        }
      ],
      "stateMutability": "view",
      "type": "function"
    },
    {
      "inputs": [
        {
          "internalType": "string",
          "name": "domainName",
          "type": "string"
        }
      ],
      "name": "getDomain",
      "outputs": [
        {
          "components": [
            {
              "internalType": "address",
              "name": "owner",
              "type": "address"
            },
            {
              "internalType": "uint256",
              "name": "expiration",
              "type": "uint256"
            }
          ],
          "internalType": "struct Okid.Domain",
          "name": "",
          "type": "tuple"
        }
      ],
      "stateMutability": "view",
      "type": "function"
    },
    {
      "inputs": [
        {
          "internalType": "string",
          "name": "domainName",
          "type": "string"
        }
      ],
      "name": "getDomainExpiration",
      "outputs": [
        {
          "internalType": "uint256",
          "name": "",
          "type": "uint256"
        }
      ],
      "stateMutability": "view",
      "type": "function"
    },
    {
      "inputs": [
        {
          "internalType": "string",
          "name": "domainName",
          "type": "string"
        }
      ],
      "name": "getDomainOwner",
      "outputs": [
        {
          "internalType": "address",
          "name": "",
          "type": "address"
        }
      ],
      "stateMutability": "view",
      "type": "function"
    },
    {
      "inputs": [],
      "name": "owner",
      "outputs": [
        {
          "internalType": "address",
          "name": "",
          "type": "address"
        }
      ],
      "stateMutability": "view",
      "type": "function"
    },
    {
      "inputs": [
        {
          "internalType": "string",
          "name": "domainName",
          "type": "string"
        }
      ],
      "name": "registerDomain",
      "outputs": [],
      "stateMutability": "payable",
      "type": "function"
    },
    {
      "inputs": [
        {
          "internalType": "string",
          "name": "domainName",
          "type": "string"
        }
      ],
      "name": "renewDomain",
      "outputs": [],
      "stateMutability": "payable",
      "type": "function"
    },
    {
      "inputs": [
        {
          "internalType": "string",
          "name": "domainName",
          "type": "string"
        }
      ],
      "name": "revokeDomain",
      "outputs": [],
      "stateMutability": "nonpayable",
      "type": "function"
    },
    {
      "stateMutability": "payable",
      "type": "receive"
    }
  ],
  "bytecode": "0x608060405234801561001057600080fd5b50336000806101000a81548173ffffffffffffffffffffffffffffffffffffffff021916908373ffffffffffffffffffffffffffffffffffffffff160217905550611110806100606000396000f3fe6080604052600436106100895760003560e01c80638da5cb5b116100595780638da5cb5b14610160578063a5cad08a1461018b578063de154660146101a7578063ecdd04da146101d2578063f5fb9de31461020f57610090565b806296c0671461009257806325970115146100cf578063442890d51461010c578063547045db1461013757610090565b3661009057005b005b34801561009e57600080fd5b506100b960048036038101906100b49190610bb8565b61022b565b6040516100c69190610c1a565b60405180910390f35b3480156100db57600080fd5b506100f660048036038101906100f19190610bb8565b610256565b6040516101039190610c76565b60405180910390f35b34801561011857600080fd5b506101216102a1565b60405161012e9190610c76565b60405180910390f35b34801561014357600080fd5b5061015e60048036038101906101599190610bb8565b6102ca565b005b34801561016c57600080fd5b5061017561053b565b6040516101829190610c76565b60405180910390f35b6101a560048036038101906101a09190610bb8565b61055f565b005b3480156101b357600080fd5b506101bc61074f565b6040516101c99190610c1a565b60405180910390f35b3480156101de57600080fd5b506101f960048036038101906101f49190610bb8565b610757565b6040516102069190610cde565b60405180910390f35b61022960048036038101906102249190610bb8565b6107ef565b005b600060018260405161023d9190610d6a565b9081526020016040518091039020600101549050919050565b60006001826040516102689190610d6a565b908152602001604051809103902060000160009054906101000a900473ffffffffffffffffffffffffffffffffffffffff169050919050565b60008060009054906101000a900473ffffffffffffffffffffffffffffffffffffffff16905090565b600073ffffffffffffffffffffffffffffffffffffffff166001826040516102f29190610d6a565b908152602001604051809103902060000160009054906101000a900473ffffffffffffffffffffffffffffffffffffffff1673ffffffffffffffffffffffffffffffffffffffff160361037a576040517f08c379a000000000000000000000000000000000000000000000000000000000815260040161037190610dde565b60405180910390fd5b60018160405161038a9190610d6a565b908152602001604051809103902060000160009054906101000a900473ffffffffffffffffffffffffffffffffffffffff1673ffffffffffffffffffffffffffffffffffffffff163373ffffffffffffffffffffffffffffffffffffffff1614610429576040517f08c379a000000000000000000000000000000000000000000000000000000000815260040161042090610e4a565b60405180910390fd5b6001816040516104399190610d6a565b908152602001604051809103902060000160009054906101000a900473ffffffffffffffffffffffffffffffffffffffff1673ffffffffffffffffffffffffffffffffffffffff166108fc479081150290604051600060405180830381858888f193505050501580156104b0573d6000803e3d6000fd5b506001816040516104c19190610d6a565b9081526020016040518091039020600080820160006101000a81549073ffffffffffffffffffffffffffffffffffffffff0219169055600182016000905550507f3107f9dbb1e381f2d3aaaf046373223d56d3dafe7540adadc273d9558ed88c9f816040516105309190610ea3565b60405180910390a150565b60008054906101000a900473ffffffffffffffffffffffffffffffffffffffff1681565b6301e133803410156105a6576040517f08c379a000000000000000000000000000000000000000000000000000000000815260040161059d90610f11565b60405180910390fd5b600073ffffffffffffffffffffffffffffffffffffffff166001826040516105ce9190610d6a565b908152602001604051809103902060000160009054906101000a900473ffffffffffffffffffffffffffffffffffffffff1673ffffffffffffffffffffffffffffffffffffffff1614610656576040517f08c379a000000000000000000000000000000000000000000000000000000000815260040161064d90610f7d565b60405180910390fd5b60405180604001604052803373ffffffffffffffffffffffffffffffffffffffff1681526020016301e133804261068d9190610fcc565b8152506001826040516106a09190610d6a565b908152602001604051809103902060008201518160000160006101000a81548173ffffffffffffffffffffffffffffffffffffffff021916908373ffffffffffffffffffffffffffffffffffffffff160217905550602082015181600101559050507f19b32006d377795e50309cbfef6336edf2dac8a41b8aa40093296ca5489b4d6781336301e13380426107359190610fcc565b60405161074493929190611000565b60405180910390a150565b6301e1338081565b61075f610a2e565b60018260405161076f9190610d6a565b90815260200160405180910390206040518060400160405290816000820160009054906101000a900473ffffffffffffffffffffffffffffffffffffffff1673ffffffffffffffffffffffffffffffffffffffff1673ffffffffffffffffffffffffffffffffffffffff1681526020016001820154815250509050919050565b6301e13380341015610836576040517f08c379a000000000000000000000000000000000000000000000000000000000815260040161082d90610f11565b60405180910390fd5b600073ffffffffffffffffffffffffffffffffffffffff1660018260405161085e9190610d6a565b908152602001604051809103902060000160009054906101000a900473ffffffffffffffffffffffffffffffffffffffff1673ffffffffffffffffffffffffffffffffffffffff16036108e6576040517f08c379a00000000000000000000000000000000000000000000000000000000081526004016108dd90610dde565b60405180910390fd5b6001816040516108f69190610d6a565b908152602001604051809103902060000160009054906101000a900473ffffffffffffffffffffffffffffffffffffffff1673ffffffffffffffffffffffffffffffffffffffff163373ffffffffffffffffffffffffffffffffffffffff1614610995576040517f08c379a000000000000000000000000000000000000000000000000000000000815260040161098c9061108a565b60405180910390fd5b6301e133806001826040516109aa9190610d6a565b908152602001604051809103902060010160008282546109ca9190610fcc565b925050819055507ff44ec9072df846717b4110f1fc66219abeeba0e9599e259c4309f01079e7a8e981600183604051610a039190610d6a565b908152602001604051809103902060010154604051610a239291906110aa565b60405180910390a150565b6040518060400160405280600073ffffffffffffffffffffffffffffffffffffffff168152602001600081525090565b6000604051905090565b600080fd5b600080fd5b600080fd5b600080fd5b6000601f19601f8301169050919050565b7f4e487b7100000000000000000000000000000000000000000000000000000000600052604160045260246000fd5b610ac582610a7c565b810181811067ffffffffffffffff82111715610ae457610ae3610a8d565b5b80604052505050565b6000610af7610a5e565b9050610b038282610abc565b919050565b600067ffffffffffffffff821115610b2357610b22610a8d565b5b610b2c82610a7c565b9050602081019050919050565b82818337600083830152505050565b6000610b5b610b5684610b08565b610aed565b905082815260208101848484011115610b7757610b76610a77565b5b610b82848285610b39565b509392505050565b600082601f830112610b9f57610b9e610a72565b5b8135610baf848260208601610b48565b91505092915050565b600060208284031215610bce57610bcd610a68565b5b600082013567ffffffffffffffff811115610bec57610beb610a6d565b5b610bf884828501610b8a565b91505092915050565b6000819050919050565b610c1481610c01565b82525050565b6000602082019050610c2f6000830184610c0b565b92915050565b600073ffffffffffffffffffffffffffffffffffffffff82169050919050565b6000610c6082610c35565b9050919050565b610c7081610c55565b82525050565b6000602082019050610c8b6000830184610c67565b92915050565b610c9a81610c55565b82525050565b610ca981610c01565b82525050565b604082016000820151610cc56000850182610c91565b506020820151610cd86020850182610ca0565b50505050565b6000604082019050610cf36000830184610caf565b92915050565b600081519050919050565b600081905092915050565b60005b83811015610d2d578082015181840152602081019050610d12565b60008484015250505050565b6000610d4482610cf9565b610d4e8185610d04565b9350610d5e818560208601610d0f565b80840191505092915050565b6000610d768284610d39565b915081905092915050565b600082825260208201905092915050565b7f444f4d41494e204e4f5420524547495354455245440000000000000000000000600082015250565b6000610dc8601583610d81565b9150610dd382610d92565b602082019050919050565b60006020820190508181036000830152610df781610dbb565b9050919050565b7f4f4e4c59204f574e45522043414e205245564f4b4520444f4d41494e00000000600082015250565b6000610e34601c83610d81565b9150610e3f82610dfe565b602082019050919050565b60006020820190508181036000830152610e6381610e27565b9050919050565b6000610e7582610cf9565b610e7f8185610d81565b9350610e8f818560208601610d0f565b610e9881610a7c565b840191505092915050565b60006020820190508181036000830152610ebd8184610e6a565b905092915050565b7f494e53554646494349454e542046554e44530000000000000000000000000000600082015250565b6000610efb601283610d81565b9150610f0682610ec5565b602082019050919050565b60006020820190508181036000830152610f2a81610eee565b9050919050565b7f444f4d41494e20414c5245414459205245474953544552454400000000000000600082015250565b6000610f67601983610d81565b9150610f7282610f31565b602082019050919050565b60006020820190508181036000830152610f9681610f5a565b9050919050565b7f4e487b7100000000000000000000000000000000000000000000000000000000600052601160045260246000fd5b6000610fd782610c01565b9150610fe283610c01565b9250828201905080821115610ffa57610ff9610f9d565b5b92915050565b6000606082019050818103600083015261101a8186610e6a565b90506110296020830185610c67565b6110366040830184610c0b565b949350505050565b7f4f4e4c59204f574e45522043414e2052454e455720444f4d41494e0000000000600082015250565b6000611074601b83610d81565b915061107f8261103e565b602082019050919050565b600060208201905081810360008301526110a381611067565b9050919050565b600060408201905081810360008301526110c48185610e6a565b90506110d36020830184610c0b565b939250505056fea264697066735822122005d168a3ef5d7e9ef1091aae55d913b271cc425223e1c9cc17c30feabd0cd95f64736f6c63430008110033",
  "linkReferences": {},
  "deployedLinkReferences": {}
}